:100000000C945D000C947A000C947A000C947A00A5
:100010000C947A000C947A000C947A000C940201EF
:100020000C947A000C947A000C947A000C947A0068
:100030000C947A000C947A000C947A000C947A0058
:100040000C94B8000C947A000C947A000C947A000A
:100050000C947A000C947A000C947A000C947A0038
:100060000C947A000C947A00000000080002010051
:100070000003040700000000000000000200000070
:1000800000250028002B0000000000240027002A83
:100090000004040404040404040202020202020331
:1000A000030303030301020408102040800102043B
:1000B0000810200102040810200011241FBECFEFF9
:1000C000D8E0DEBFCDBF11E0A0E0B1E0E4E3F9E0AD
:1000D00002C005900D92A230B107D9F721E0A2E04D
:1000E000B1E001C01D92AC31B207E1F70E94BF013F
:1000F0000C9498040C940000CF93DF9390E0FC01E3
:10010000EB55FF4F2491FC01EF56FF4F849188235C
:1001100061F190E0880F991FFC01E957FF4FC591ED
:10012000D491FC01E358FF4FA591B491611109C02E
:100130009FB7F8948881209582238883EC912E23A1
:100140000BC0623061F49FB7F8948881322F3095EC
:1001500083238883EC912E2B2C939FBF06C08FB7EF
:10016000F894E8812E2B28838FBFDF91CF910895DB
:100170001F920F920FB60F9211242F933F938F93DC
:100180009F93AF93BF938091180190911901A09113
:100190001A01B0911B013091170123E0230F2D3775
:1001A00020F40196A11DB11D05C026E8230F02967B
:1001B000A11DB11D2093170180931801909319017F
:1001C000A0931A01B0931B01809113019091140127
:1001D000A0911501B09116010196A11DB11D80934A
:1001E000130190931401A0931501B0931601BF91D0
:1001F000AF919F918F913F912F910F900FBE0F90D4
:100200001F9018951F920F920FB60F9211242F93E3
:100210003F938F939F93AF93BF93EF93FF938091FF
:10022000070190910801A0910901B0910A01892B61
:100230008A2B8B2B59F190910201E0910301F091EF
:1002400004018081892780838091070190910801B2
:10025000A0910901B0910A01181619061A061B0689
:100260000CF080C08091070190910801A0910901D4
:10027000B0910A010197A109B109809307019093F8
:100280000801A0930901B0930A016CC0809100019C
:10029000ECE7F0E0E4919FEF90930001E130B9F0DA
:1002A00098F0E230C9F4909170009D7F90937000B7
:1002B00091E09093B0009091B100987F94609093FA
:1002C000B1001092B30008C010926E0005C090916A
:1002D0006F009D7F90936F0090E0FC01E859FF4F05
:1002E0002491FC01EB55FF4F3491FC01EF56FF4F79
:1002F000E491EE23B9F1222339F1233091F038F45F
:100300002130A9F0223001F584B58F7D12C027304D
:1003100091F02830A1F02430B9F4809180008F7DD5
:1003200003C0809180008F77809380000DC084B5DA
:100330008F7784BD09C08091B0008F7703C0809112
:10034000B0008F7D8093B000F0E0EE0FFF1FE35808
:10035000FF4FA591B4919FB7F8948C9130953823B5
:100360003C939FBFFF91EF91BF91AF919F918F9170
:100370003F912F910F900FBE0F901F901895CF9324
:10038000DF9300D000D01F92CDB7DEB7789484B54C
:10039000826084BD84B5816084BD85B5826085BD81
:1003A00085B5816085BD80916E00816080936E000F
:1003B0001092810080918100826080938100809101
:1003C00081008160809381008091800081608093B2
:1003D00080008091B10084608093B1008091B00072
:1003E00081608093B00080917A00846080937A006D
:1003F00080917A00826080937A0080917A00816097
:1004000080937A0080917A00806880937A001092BD
:10041000C10061E088E00E947C0060E08EE00E9404
:100420007C00E2E18E2EEAE79E2EA12CB12C442422
:100430004A94542C320179E9272E70E0372E0DEAC8
:1004400010E080E480937C0080917A008064809347
:100450007A0080917A0086FDFCCFA091780080918F
:100460007900B0E0B82B2EEE3DE40E9491042FEF0E
:1004700033E040E050E00E94410469017A0192E3D8
:10048000C90ED11CE11CF11C80910001883021F0C3
:100490008F3F09F087C105C0ECE7F0E0F491FD83E0
:1004A0006FC088E080930001ECE7F0E0F491FD83F9
:1004B000FF3F09F477C1F13009F43FC030F1F23069
:1004C00009F05EC01092B0001092B1008091B000AF
:1004D00082608093B0008091B10081608093B10010
:1004E000F1018491E82FF0E0EE0FFF1FE358FF4F7A
:1004F000859194919093040180930301F801849174
:1005000080930201F2E0FD83B7C114BC15BC84B531
:10051000826084BD85B5816085BDF1018491E82F3D
:10052000F0E0EE0FFF1FE358FF4F85919491F80123
:100530008491809306011D829FC1109280001092C9
:10054000810080918100886080938100809181008A
:10055000816080938100F1018491E82FF0E0EE0F3B
:10056000FF1FE358FF4F85919491F8018491809388
:10057000050161E088E00E947C00F1E0FD83AAC0F3
:100580008D8187FD0FC161E088E00E947C008D8134
:100590008D7F09F09FC0EE24FF2460E072E18AE7BE
:1005A00090E0A70196010E94410429833A834B837E
:1005B0005C83BA01A90141505109610971094F3F9A
:1005C00051056105710509F008F447C060E472E463
:1005D0008FE090E0A70196010E944104BA01A901B1
:1005E00041505109610971099D819230E9F44F3FF1
:1005F00051056105710509F008F4DEC060E970ED90
:1006000083E090E0A70196010E944104BA01A9018C
:1006100041505109610971094F3F5105610571054B
:1006200009F030F583E04FC04F3F5105610571057A
:10063000B1F0A8F068E478EE81E090E0A7019601BF
:100640000E944104BA01A90141505109610971098F
:10065000ED81EE2309F4B2C007C181E001C082E060
:10066000FD81F11130C095B5987F892B85BD6AC099
:1006700068E478EE81E090E0A70196010E944104D1
:10068000BA01A90141505109610971094F3F510552
:100690006105710509F008F48DC064E274EF80E033
:1006A00090E0A70196010E944104BA01A9014150BE
:1006B0005109610971094F3F51056105710511F03B
:1006C00008F0ABC085E09091B100987F892B8093B2
:1006D000B10031C0EE24FF2460E072E18AE790E0CF
:1006E000A70196010E944104BA01A9014150510994
:1006F000610971094115510581E06807710580F0B4
:1007000068E478EE81E090E0A70196010E94410440
:10071000BA01A901415051096109710983E001C081
:1007200081E09D81913039F490918100987F892BEF
:100730008093810016C0ED81E13099F0E23019F12B
:10074000E11130C047BD40920F01509210016092FC
:1007500011017092120180916E00826080936E0090
:1007600021C0509389004093880040920B01509221
:100770000C0160920D0170920E0180916F008260F9
:1007800080936F000FC04093B300409207015092D6
:1007900008016092090170920A01809170008260E4
:1007A0008093700080E090E0892B09F44ACE0E948B
:1007B000000041CE84E087CF82E085CF4F3F5105D6
:1007C0006105710541F138F1C501B401A701960138
:1007D0000E944104BA01A9014150510961097109FE
:1007E0004F3F510561057105A1F098F089819A810B
:1007F000AB81BC813AE0B595A795979587953A95D9
:10080000D1F7AC01BD01415051096109710985E081
:100810002ACF84E028CF83E026CFC501B401A70109
:1008200096010E944104BA01A90141505109610990
:1008300071094F3F510561057105A1F098F089815B
:100840009A81AB81BC812AE0B595A795979587954C
:100850002A95D1F7AC01BD014150510961097109D7
:1008600087E031CF86E02FCF4F3F510561057105FD
:1008700009F098F684E0F4CE61E088E00E947C0004
:100880008ACE052E97FB1EF400940E94580457FD53
:1008900007D00E94600407FC03D04EF40C94580467
:1008A00050954095309521953F4F4F4F5F4F08959C
:1008B00090958095709561957F4F8F4F9F4F0895CC
:1008C000A1E21A2EAA1BBB1BFD010DC0AA1FBB1F54
:1008D000EE1FFF1FA217B307E407F50720F0A21BC6
:1008E000B30BE40BF50B661F771F881F991F1A9433
:1008F00069F760957095809590959B01AC01BD015D
:10090000CF010895A29FB001B39FC001A39F700DB6
:10091000811D1124911DB29F700D811D1124911D07
:1009200008950E948204B7FF0895821B930B0895D7
:04093000F894FFCF69
:02093400FF00C2
:00000001FF
